:0400000080312728FC
:100008007E1480312000911C0A280B2825280130F5
:10001800F7070030F83D7D30F0000030F100780837
:10002800F3007708F2008031C52080317008710430
:10003800031D1F2820282328813118218031200002
:1000480091107E10090080312928F701F8017E10EF
:10005800200080312F2881314E21803120001C154D
:100068001C08873938389C00FC309C058B170B1707
:10007800210091142000911421001508F839033843
:10008800950095119512F93020009B0020008D15E0
:10009800A101A2018230200095000B1D542855288B
:1000A80051280B1101302000A1070030A23D220881
:1000B800803AA00083302002031D6428E930210221
:1000C800031C672868284E2820000D15A301A401E9
:1000D8008230200095000B1D722873286F280B11A1
:1000E80001302000A3070030A43D2408803AA00076
:1000F80083302002031D8228E9302302031C85284F
:1001080086286C2820008D14A501A60182302000C5
:1001180095000B1D902891288D280B110130200087
:10012800A5070030A63D2608803AA00083302002AB
:10013800031DA028E9302502031CA328A4288A2827
:1001480020000D14A701A8018230200095000B1D86
:10015800AE28AF28AB280B1101302000A7070030CC
:10016800A83D2808803AA00083302002031DBE283D
:10017800E9302702031CC128C228A8284A28803150
:100188002728F601F31FC928CA28D128F209F3093C
:10019800F20A0319F30AF601F60AF11FD428D52842
:1001A800DA28F009F109F00A0319F10A7008710454
:1001B8000319DF28E0280929F501F50AEC280130A0
:1001C800F035F10D890BE4280130F4007408F507C7
:1001D800F11FEF28F028E32871087302031DF628A1
:1001E80070087202031CF928FA28FE287008F20227
:1001F8007108F33B0130F136F00C890BFF28013010
:10020800F502031D08290929F028760803190D2984
:100218000E291329F209F309F20A0319F30A7308DC
:10022800F1007208F00008002B2920000F108F142D
:100238004D2920008F100F154D2920000F118F1503
:100248004D2920008F110F14F701F8014D29780866
:10025800003A03193929013A03193E29033A0319C7
:100268004329013A031948294D297708FA3A03190D
:1002780019294D297708F43A03191D294D297708BA
:10028800EE3A031921294D297708E83A0319252957
:100298004D29080021000F108F100F118F110D101C
:0802A8008D100D118D110800ED
:020000040001F9
:04000E00EA3FFB1EAC
:00000001FF
