:0400000080312728FC
:100008007E1480312000911C0A280B2825280130F5
:10001800F7070030F83D7D30F0000030F100780837
:10002800F3007708F2008031CD2080317008710428
:10003800031D1F28202823288131202180312000FA
:1000480091107E10090080312928F701F8017E10EF
:10005800200080312F2881315621803120001C1545
:100068001C08873938389C00FC309C058B170B1707
:10007800210091142000911421001508F839033843
:10008800950095119512F93020009B0022008D15DE
:100098000D102000A101A2018230200095000B1D47
:1000A8005628572853280B1101302000A10700308B
:1000B800A23D2208803AA00083302002031D662852
:1000C800E9302102031C69286A28502822000D15EE
:1000D8008D112000A301A4018230200095000B1D82
:1000E8007628772873280B1101302000A3070030E9
:1000F800A43D2408803AA00083302002031D8628EE
:10010800E9302302031C89288A28702822008D14CC
:100118000D112000A501A6018230200095000B1DBD
:100128009628972893280B1101302000A507003046
:10013800A63D2608803AA00083302002031DA62889
:10014800E9302502031CA928AA28902822000D14AA
:100158008D102000A701A8018230200095000B1DFA
:10016800B628B728B3280B1101302000A7070030A4
:10017800A83D2808803AA00083302002031DC62825
:10018800E9302702031CC928CA28B0284A28803128
:100198002728F601F31FD128D228D928F209F30914
:1001A800F20A0319F30AF601F60AF11FDC28DD2822
:1001B800E228F009F109F00A0319F10A700871043C
:1001C8000319E728E8281129F501F50AF428013070
:1001D800F035F10D890BEC280130F4007408F507AF
:1001E800F11FF728F828EB2871087302031DFE2871
:1001F80070087202031C0129022906297008F202FC
:100208007108F33B0130F136F00C890B07290130F6
:10021800F502031D10291129F82876080319152954
:1002280016291B29F209F309F20A0319F30A7308BC
:10023800F1007208F0000800332922000F108F1413
:10024800552922008F100F15552922000F118F15DF
:10025800552922008F110F14F701F8015529780844
:10026800003A03194129013A03194629033A0319A7
:100278004B29013A0319502955297708FA3A0319E5
:10028800212955297708F43A03192529552977088A
:10029800EE3A0319292955297708E83A03192D292F
:1002A8005529080021000F108F100F118F110D1004
:0802B8008D100D118D110800DD
:020000040001F9
:04000E00EA3FFB1EAC
:00000001FF
