:0400000080312728FC
:100008007E1480312000911C0A280B2825280130F5
:10001800F7070030F83D7D30F0000030F100780837
:10002800F3007708F20080312F20803170087104C6
:10003800031D1F282028232880318220803120009A
:1000480091107E10090080312928F701F8017E10EF
:1000580020008031D428F601F31F332834283B28A8
:10006800F209F309F20A0319F30AF601F60AF11F75
:100078003E283F284428F009F109F00A0319F10A3B
:1000880070087104031949284A287328F501F50AEC
:1000980056280130F035F10D890B4E280130F40057
:1000A8007408F507F11F59285A284D28710873025A
:1000B800031D602870087202031C632864286828DE
:1000C8007008F2027108F33B0130F136F00C890B2D
:1000D80069280130F502031D722873285A2876080A
:1000E8000319772878287D28F209F309F20A0319F9
:1000F800F30A7308F1007208F0000800A528200030
:100108000F108F14D32820008F100F15D32820002C
:100118000F118F15D32820008F110D14D32820001C
:100128000D108D14D32820008D100D15D328200014
:100138000D118D15D32820008D110F14F701F8012A
:10014800D3287808003A0319B328013A0319BB28C1
:10015800033A0319C328013A0319CB28D32877088F
:100168007D3A03198328873A03198728D328770803
:10017800773A03198B28833A03198F28D3287708ED
:10018800713A031993289F3A03199728D3287708B7
:100198006B3A03199B28833A03199F28D328080030
:1001A8008031EA20803120001C151C088739383836
:1001B8009C00FC309C058B170B1721009114200024
:1001C8009114F9309B00E7288031272821000F106F
:1001D8008F100F118F110D108D100D118D11200022
:0401E8000F140800E8
:020000040001F9
:04000E00EA3FFB1EAC
:00000001FF
