:08000000803102288731FD2F39
:100F820021000F108F100F118F110D108D100D11E8
:100F92008D110800F101F2010130F1070030F23D3C
:100FA2007208803AF000CE307002031DDA2F203032
:100FB2007102031CDD2FDE2FCD2F08008731C127E0
:100FC20087310F30F300730820008F04F030F300F4
:100FD20073088D058731CB2787310F30F3007308F3
:100FE20020008D04F030F30073088F058731CB2782
:100FF2008731E22F8031022820008731DF2F203411
:021002004E346A
:020000040001F9
:04000E00EA3FFB1EAC
:00000001FF
