:08000000803102288731FD2F39
:100F820021000F108F100F118F110D108D100D11E8
:100F92008D110800F101F2010130F1070030F23D3C
:100FA2007208803AF00081307002031DDA2FF430AB
:100FB2007102031CDD2FDE2FCD2F08008731C127E0
:100FC20087310F30F300730820008F04EF30F300F5
:100FD20073088D058731CB2787310F30F3007308F3
:100FE20020008D04EF30F30073088F058731CB2783
:100FF2008731E22F8031022820008731DF2FF4343D
:021002000134B7
:020000040001F9
:04000E00EA3FFB1EAC
:00000001FF
