:08000000803102288731FD2F39
:100D880022000C1521000C110800403024009400AA
:100D9800223095009201080001308631FA2686310A
:100DA800F40100308731222786310800F000240042
:100DB800951370089100E12E64002400141CE52EA0
:100DC800E62EE02E11080800F20022000C11403037
:100DD8008631DA26863172088631DA26863171083C
:100DE8008631DA26863122000C150800F3006030BF
:100DF800F10012308631E82686317308F10013308D
:100E08008631E82686312030F10012308631E82616
:100E180086310800F300E030F10012308631E82610
:100E280087317308F10013308631E8268731A03006
:100E3800F10012308631E82687310800F8000230C8
:100E480078020318282F292F3F2F780803192D2FF0
:100E58002E2F342FC0307404F5000030F600392FDF
:100E680080307404F5000030F6007508F700770844
:100E78008631FA268731080087315E278731863127
:100E8800C42687318631C92687318731A52787311E
:100E98008631D0268731F401003087312227873107
:100EA8000030F4008830F50087317F2787315B2FC9
:100EB8008031022822008E1121008E1122000E128C
:100EC80021000E1622008E1221008E123C002108ED
:100ED800E0391438A1003D002308E0391038A30098
:100EE8003C002008E0391338A0003D002508E0390F
:100EF8001138A5000800F901942F7508F700740847
:100F0800F60079087607840077080318770A8500C1
:100F1800000887310E2787310130F6007608F90777
:100F28007508F7007408F6007908760784007708D2
:100F38000318770A85001200031DA32FA42F812F01
:100F48000800F10100308631E8268731F1010130CF
:100F58008631E82687312030F10012308631E826C4
:100F680087311A30F400F830890BB82FF40BB82FFA
:100F780000323C308631FA2687311A30F400F830D6
:100F8800890BC42FF40BC42F00320C308631FA269B
:100F980087311A30F400F830890BD02FF40BD02F9A
:100FA800003201308631FA2687311A30F400F830E1
:100FB800890BDC2FF40BDC2F00320C308631FA263B
:100FC80087310230F5005230F400A630890BEA2F41
:100FD800F40BEA2FF50BEA2F003280308631FA261F
:100FE80087310330F4009830890BF82FF40BF82F71
:100FF800080020008731402F483465346C346C3445
:101008006F34203457346F3472346C346434203481
:04101800213400344B
:020000040001F9
:04000E00EA3FFB1EAC
:00000001FF
