:08000000803102288731FD2F39
:100E960020000F108F100F118F110D108D100D11D6
:100EA6008D11080021009D149D185A2F5B2F572F76
:100EB6001C08F200F3017208F0007308F100080044
:100EC60021000F108F100F118F110D108D100D11A5
:100ED6008D110C1423000C1421001D1483309D0564
:100EE6008F309E051E11FC309E059E139D14080032
:100EF6008731632787318731552787317108F60097
:100F06007008F50087314B2787317608803AF40060
:100F160080307402031D912F203075020318942F20
:100F2600952F982F20000F147E2F7608803AF40014
:100F360080307402031DA12F403075020318A42FC0
:100F4600A52FA82F20008F147E2F7608803AF40054
:100F560080307402031DB12F603075020318B42F60
:100F6600B52FB82F20000F157E2F7608803AF40093
:100F760080307402031DC12F803075020318C42F00
:100F8600C52FC82F20008F157E2F7608803AF400D3
:100F960080307402031DD12FA03075020318D42FA0
:100FA600D52FD82F20000D147E2F7608803AF40016
:100FB60080307402031DE12FC03075020318E42F40
:100FC600E52FE82F20008D147E2F7608803AF40056
:100FD60080307402031DF12FE03075020318F42FE0
:100FE600F52FF82F20000D157E2F20008D157E2F52
:0A0FF60080310228200087317B2F94
:020000040001F9
:04000E00EA3FFB1EAC
:00000001FF
