:08000000803102288731FD2F39
:100EEE002000911C7B2F7C2F772F911008003D0046
:100EFE002608E0391438A6001F303C00A404210057
:100F0E000E138E1723008E131E121E119F159C0199
:100F1E0033309B009D179E161D1620001C151C08B5
:100F2E00873938389C00FC309C05080087317E27B5
:100F3E008731483023009A00873177278731653013
:100F4E0023009A008731772787316C3023009A006F
:100F5E008731772787316C3023009A0087317727C6
:100F6E0087316F3023009A00873177278731203001
:100F7E0023009A00873177278731573023009A0054
:100F8E008731772787316F3023009A008731772793
:100F9E008731723023009A008731772787316C3082
:100FAE0023009A00873177278731643023009A0017
:100FBE00873177278731203023009A0087317727B2
:100FCE008731213023009A008731772787310A3005
:100FDE0023009A008731772787310D3023009A003E
:100FEE00873177278731FA2F803102282000873109
:020FFE009D2F25
:020000040001F9
:04000E00EA3FFB1EAC
:00000001FF
