:0400000080313928EA
:100008007E1480312700931E0A280B281828931283
:10001800031020001C1D03140318132816282000A1
:100028001C15182820001C112000911C1C281D28B4
:1000380037280130F7070030F83D7D30F0000030F8
:10004800F1007808F3007708F2008031E42080316D
:1000580070087104031D3128322835288131372171
:100068008031200091107E10090080313B28F70173
:10007800F8017E1020008031412881316D218031C6
:1000880020001C151C08873938389C00FC309C055A
:100098008B170B1721009114200091148B15270042
:1000A800921621001508F839033895009511951214
:1000B80022008D11F93020009B0022008D150D10B3
:1000C8002000A101A2018230200095000B1D6D289F
:1000D8006E286A280B1101302000A1070030A23DCC
:1000E8002208803AA00083302002031D7D28E930D1
:1000F8002102031C80288128672822000D158D11F4
:100108002000A301A4018230200095000B1D8D283A
:100118008E288A280B1101302000A3070030A43D47
:100128002408803AA00083302002031D9D28E9306E
:100138002302031CA028A128872822008D140D1152
:100148002000A501A6018230200095000B1DAD28D6
:10015800AE28AA280B1101302000A5070030A63DC3
:100168002608803AA00083302002031DBD28E9300C
:100178002502031CC028C128A72822000D148D10B1
:100188002000A701A8018230200095000B1DCD2872
:10019800CE28CA280B1101302000A7070030A83D3F
:1001A8002808803AA00083302002031DDD28E930AA
:1001B8002702031CE028E128C72861288031392854
:1001C800F601F31FE828E928F028F209F309F20AF2
:1001D8000319F30AF601F60AF11FF328F428F9289F
:1001E800F009F109F00A0319F10A700871040319FA
:1001F800FE28FF282829F501F50A0B290130F035DA
:10020800F10D890B03290130F4007408F507F11F7B
:100218000E290F29022971087302031D1529700878
:100228007202031C182919291D297008F202710885
:10023800F33B0130F136F00C890B1E290130F50231
:10024800031D272928290F29760803192C292D2968
:100258003229F209F309F20A0319F30A7308F100C3
:100268007208F00008004A2922000F108F146C2928
:1002780022008F100F156C2922000F118F156C2981
:1002880022008F110F14F701F8016C297808003A41
:1002980003195829013A03195D29033A03196229F8
:1002A800013A031967296C297708FA3A031938299A
:1002B8006C297708F43A03193C296C297708EE3A37
:1002C800031940296C297708E83A031944296C294D
:1002D800080021000F108F100F118F110D108D10B5
:0C02E8000D118D118C1623008C120800E3
:020000040001F9
:04000E00EA3FFB1EAC
:00000001FF
