:08000000803102288731FD2F39
:100F800021009D149D18C52FC62FC22F1C082C00B0
:100F90009B0021001B082C009A0008008731E227E3
:100FA00087318731C027873120009110911CD92FBC
:100FB000DA2FD62F3D002808E0390F38A800D12FAE
:100FC0008031022821000F100C1423000C14210082
:100FD0001D1483309D058F309E051E11FC309E052B
:100FE0009E139D1423000D102C009C1720001C152F
:100FF00087309C05FC309C05080020008731CE2FEF
:020000040001F9
:04000E00EA3FFB1EAC
:00000001FF
