:08000000803102288731FD2F39
:100F300021000F108F100F118F110D108D100D113A
:100F40008D110800F101F2012000911CA82FA92F9A
:100F5000A42F91100130F1070030F23D7208803A61
:100F6000F00081307002031DB72FF5307102031CB1
:100F7000BA2FBB2FA42F0800873198278731200074
:100F80001C1587309C051C08FC3902389C00F93080
:100F90009B0021000F148731A227873121000F10F9
:100FA0008F148731A227873121008F100F158731C9
:100FB000A227873121000F118F158731A227873192
:100FC00021008F110D148731A227873121000D10C8
:100FD0008D148731A227873121008D100D1587319F
:100FE000A227873121000D118D158731A227873166
:100FF00021008D11C92F8031022820008731BC2F9C
:020000040001F9
:04000E00EA3FFB1EAC
:00000001FF
