:08000000803102288731FD2F39
:100F320021000F108F100F118F110D108D100D1138
:100F42008D110800F101F2012000911CA92FAA2F96
:100F5200A52F91100130F1070030F23D7208803A5E
:100F6200F00080307002031DB82F7E307102031C26
:100F7200BB2FBC2FA52F080087319927873120006E
:100F82001C151C08873938389C00FC309C05F93048
:100F92009B000F148731A327873120000F108F1475
:100FA2008731A327873120008F100F158731A327A0
:100FB200873120000F118F158731A3278731200039
:100FC2008F110D148731A327873120000D108D1446
:100FD2008731A327873120008D100D158731A32774
:100FE200873120000D118D158731A327873120000D
:0E0FF2008D11CA2F8031022820008731BD2FBB
:020000040001F9
:04000E00EA3FFB1EAC
:00000001FF
