:04000000803117280C
:100008007E1480317C087D0403190B280C281128E4
:10001800230019087A079A0015287A08230019027C
:100028009A007E100900803119288131D32180314E
:10003800FA008131D4218031FB008131D521803112
:10004800FC008131D6218031FD007E1020008031F6
:10005800DC28F1010030813185218031F101013046
:100068008131852180312030F100123081318521A4
:1000780080311A30F400F830890B4028F40B4028FE
:1000880000323C308131712180311A30F400F8306F
:10009800890B4C28F40B4C2800320C30813171212B
:1000A80080311A30F400F830890B5828F40B58289E
:1000B800003201308131712180311A30F400F8307A
:1000C800890B6428F40B642800320C3081317121CB
:1000D80080310230F5005230F400A630890B7228C6
:1000E800F40B7228F50B72280032803081317121AF
:1000F80080310330F4009830890B8028F40B802875
:10010800080021000D1420000C1421000F102300FA
:100118000D108131002180318131CE218031813132
:10012800C721803180312D2080313D002608E039FB
:100138001438A6003C002408E0391738A400210030
:100148000E138E1723008E131E121E119F159C016D
:1001580033309B009E161D169D178B170B17210019
:1001680091160800F901CB287508F7007408F60005
:1001780079087607840077080318770A850000084D
:1001880081315D2180310130F6007608F907750864
:10019800F7007408F60079087607840077080318D2
:1001A800770A85001200031DDA28DB28B828080022
:1001B80080318520803181312121803120000D1846
:1001C800E628E728E2287C087D040319EC28ED28B6
:1001D800F328FC01FD01813121218031F82801300B
:1001E800FC000030FD00EF2820000D1CFC28FD2835
:1001F800F828E2288031172822008E1121008E115C
:1002080022000E1221000E1622008E1221008E12DC
:100218003C002108E0391438A1003D002308E039EA
:100228001038A3003C002008E0391338A0003D0036
:100238002508E0391138A50008008131BD21813138
:10024800F401003081313F2181317C087D0403199C
:100258002E292F293729B230F4008130F50080315A
:10026800B62081313E29A530F4008130F500803177
:10027800B62081310800F8000230780203184529B9
:1002880046295C29780803194A294B295129C03085
:100298007404F5000030F600562980307404F50027
:1002A8000030F6007508F700770881317121813137
:1002B8000800F300E030F1001230813185218131EE
:1002C8007308F1001330813185218131A030F100AC
:1002D80012308131852181310800F3006030F1004E
:1002E80012308131852181317308F1001330813159
:1002F800852181312030F100123081318521813111
:100308000800F20022000C11403081319721813120
:1003180072088131972181317108813197218131AA
:1003280022000C150800F0002400951370089100B5
:100338009E2964002400141CA229A3299D291108C0
:100348000800443465346334683469346634663488
:100358007234653420343A342034003443346834F9
:100368006934663466347234653420343A3420345F
:1003780000340130813171218131F4010030813143
:100388003F2181310800403024009400223095003C
:100398009201080022000C1521000C1108000134FC
:0603A800003401340034B2
:020000040001F9
:04000E00EA3FFB1EAC
:00000001FF
