:0400000080314428DF
:1000060008007E14803123001908FD0041307D026E
:10001600031C0E280F2818285B307D0203181428AD
:10002600152818287D08203EFD0030307D02031C6F
:100036001D281E2842287C307D02031823282428E8
:1000460042283A307D02031C29282A2830286130AC
:100056007D02031C2F28302842287D08FB00FC0166
:100066007B08F0007C08F10020006B08F3006A08AA
:10007600F20085310C258031700823009A007E102D
:100086000900803146288C30840027308500643092
:10009600FE000030FF008D31292580312000E80167
:1000A600E901EA01EB01EC01ED01EE01A03084006B
:1000B600003085002230FE000030FF008D312925FA
:1000C60080317E1020008531EB2D20004B088039D1
:1000D600D8004B35DA00CA1F7128722873285A14C3
:1000E6005A0803197728782888285A0A031D7C2875
:1000F6007D2885280030CB000030CA000030C900BA
:100106000030C800CA17CB0190280030CB00003061
:10011600CA000030C9000030C8004F088039D90035
:10012600590858060319982899289A2858174F35B8
:10013600D900CE1F9F28A028A128591459080319B1
:10014600A528A628B628590A031DAA28AB28B3282D
:100156000030CF000030CE000030CD000030CC00A3
:10016600CE17CF01BE280030CF000030CE000030C1
:10017600CD000030CC005A0859020318C328C42801
:10018600EA28581FC728C828CC288030D000500835
:10019600D8065A08DB005908DA005B08D900480877
:1001A600DB004C08C8005B08CC004908DB004D08A2
:1001B600C9005B08CD004A08DB004E08CA005B0890
:1001C600CE004B08DB004F08CB005B08CF00DB01FD
:1001D6005908D000D1015108D3005A085002D20064
:1001E600031CD3035308803AD40080305402031D05
:1001F600FE281A305202031C012902293429200044
:100206004B084A0449044804031D0A290C290130F5
:100216000D290030DB000030CB000030CA00003072
:10022600C9000030C8005908DA003B295B1C1C29AC
:100236001D2921295B360138DB0023290310DB0C3D
:10024600481C262927292829DB170130D000CB375F
:10025600CA0CC90CC80CD00B2A290130D000500892
:10026600DA07200059085A02031C3A293B291929A2
:10027600581B3E293F2975295A08031D432944293D
:100286004D290030CB000030CA000030C9000030D4
:10029600C8006F2A4C08C8074D08C93D4E08CA3D1C
:1002A6004F08CB3D4B1C58295929012A5B1C5C2958
:1002B6005D2961295B360138DB0063290310DB0CFD
:1002C600481C662967296829DB170130D000CB371F
:1002D600CA0CC90CC80CD00B6A290130D0005008D2
:1002E600DA07012A4B08803AD0004F08803A5002BC
:1002F600031D87294E084A02031D87294D08490216
:10030600031D87294C08480203188A298B29C3290B
:10031600FF30D000FF30D100FF30D200FF30D300D5
:1003260048084C02D40049084D3BD5004A084E3BCC
:10033600D6004B084F3BD7005408D0075508D13D8F
:100346005608D23D5708D33D5308CB005208CA0081
:100356005108C9005008C8008030D0005008D8069F
:10036600DB09DB0A5B08031DB929BA29CB29013051
:10037600C8070030C93D0030CA3D0030CB3DCB290F
:100386004C08C8024D08C93B4E08CA3B4F08CB3B38
:100396004B084A0449044804031DD229D329FD29E0
:1003A6005B08031DD729D829FD290030CB00003072
:1003B600CA000030C9000030C8006F2A0130C835B5
:1003C600C90DCA0DCB0D890BE229DB1FEB29EC29E0
:1003D600ED2948145B1CF029F129F4290314DB0DDF
:1003E600F6290310DB0D5A080319FA29FB29FD2902
:1003F6000130DA02CA1F002A012AE129D901DB1FCE
:10040600052A062A142A5B087F3903190B2A0C2AA7
:100416000F2AD901D90A142A481C122A132A142A87
:100426000C2A59080319182A192A462A0130C8071E
:100436000030C93D0030CA3D0030CB3D4B1C242A5C
:10044600252A462A4808D0004908D1004A08D20081
:100456004B08D3000130D400D337D20CD10CD00CCA
:10046600D40B2F2A5308CB005208CA005108C900E2
:100476005008C8005A0A0319412A422A462A01305E
:10048600D0005008DA075A0A03194A2A4B2A502A7A
:100496005A08031D4F2A502A5E2A0030CB0000302E
:1004A600CA000030C9000030C8005A08031D5C2A83
:1004B6005D2A5E2AD8015A1C612A622A642ACA1752
:1004C600682A7F30D0005008CA055A36CB00D81F9C
:1004D6006D2A6E2A6F2ACB1708002000350880394E
:1004E600BF003535C600B41F792A7A2A7B2A4614FE
:1004F600460803197F2A802A902A460A031D842A61
:10050600852A8D2A0030B5000030B4000030B300D3
:100516000030B200B417B501982A0030B50000309B
:10052600B4000030B3000030B20031088039B600A4
:100536003608BF063135C700B01FA22AA32AA42A4F
:10054600471447080319A82AA92AB92A470A031DE6
:10055600AD2AAE2AB62A0030B1000030B000003015
:10056600AF000030AE00B017B101C12A0030B100B3
:100576000030B0000030AF000030AE00310830046B
:100586002F042E04031DC82AC92AE22A0030B5000A
:100596000030B4000030B3000030B2008030B40444
:1005A6007F30B5043F08B6003608B5043508B100FB
:1005B6003408B0003308AF003208AE00192C4608E4
:1005C600031DE62AE72AF02A0030B1000030B00009
:1005D6000030AF000030AE00192C4608B600B70157
:1005E6003708B90047083602B800031CB9033808B3
:1005F6007F3EC0000030393DC1003508BE003408DA
:10060600BD003308BC003208BB000030B500003026
:10061600B4000030B3000030B2000030C500003036
:10062600C4000030C3000030C200C701582B470881
:1006360003191E2B1F2B392B0130BB35BC0DBD0DED
:10064600BE0D890B202B0130B235B30DB40DB50D9F
:10065600890B272BC51F302B312B322B321401303F
:10066600C235C30DC40DC50D890B332B31083E02AF
:10067600031D472B30083D02031D472B2F083C0264
:10068600031D472B2E083B02031C4A2B4B2B542BD6
:1006960045172E08BB022F08BC3B3008BD3B31086E
:1006A600BE3B0130B6003608C7071A304702031CA6
:1006B6005D2B5E2B1A2B3E083D043C043B040319BC
:1006C600652B662B7F2B42147F2B0130B235B30D81
:1006D600B40DB50D890B692BC51F722B732B742BAB
:1006E60032140130C235C30DC40DC50D890B752BEF
:1006F600FF30C007FF30C13DB41F822B832B682B10
:10070600C701C51F872B882BA42BFF304205B600D7
:10071600FF304305B700FF304405B8007F3045057C
:10072600B900390838043704360403199B2B9C2B6F
:100736009F2BC701C70AA42B321CA22BA32BA42BC9
:100746009C2B47080319A82BA92BD12B0130B207E4
:100756000030B33D0030B43D0030B53D351CB42B00
:10076600B52BD12B3208B6003308B7003408B800D1
:100776003508B9000130BA00B937B80CB70CB60C59
:10078600BA0BBF2B3908B5003808B4003708B300D8
:100796003608B2000130C0070030C13D4108803A3A
:1007A600B60080303602031DDA2BFF304002031CF0
:1007B600DD2BDE2BEB2BFF302000C0000030C1000C
:1007C6000030B5000030B4000030B3000030B20095
:1007D60020004108803AB60080303602031DF52B12
:1007E600013040020318F82BF92B052C2000C0011C
:1007F600C1010030B5000030B4000030B300003055
:10080600B200BF0120004008C600461C0B2C0C2C71
:100816000E2CB417122C7F30B6003608B4054636B7
:10082600B5003F08B6003608B504D92A08002000EE
:100836002D0886008701403FAF00413FB0002F08DA
:100846008400300885001200253A031D2B2C2C2C21
:10085600F12C2D08860087010130810741310318EC
:10086600810A2100C001C1010310003003180130C4
:100876002000EE00FF30E800FF30E9002D0886007A
:100886008701403FB400413FB50034088400350875
:1008960085001200643A0319512C522C5C2C340842
:1008A6008400350885001200693A031D5B2C5C2C18
:1008B600E72C2E0886008701010884008501023096
:1008C6008107003FB600013FB7003408013EAF0084
:1008D6000030353DB0002D08860087012F08C03F47
:1008E6003008C13F2030BA00B71B7A2C7C2C01306F
:1008F6007D2C0030B3000130BA023A08A03E8600D3
:1009060087010A30A0000030A1003708A30036088E
:10091600A2008E318B26843120002108A8002008F1
:10092600A7008D315525843120002708303E8100EF
:100936000A30A0000030A1003708A3003608A20044
:100946008F313E27843120002108B7002008B600E9
:10095600360837040319B02CB12CB62C3A08031DFF
:10096600B52CB62C7E2C3A080319BA2CBB2CE02CDD
:1009760033080319BF2CC02CE02C0130BA023A0808
:10098600A03E860087012D308100E02C3A08A03E6B
:10099600860087010108AF00B0012F08A0003008CB
:1009A600A1002C08A3002B08A2008E31DF2684317B
:1009B60001302000AF002F08BA0720303A06031D89
:1009C600E52CE62CC92C0B2D20002D08860087016E
:1009D6000130810741310318810A0B2D2D0886004D
:1009E6008701403FAF00413FB0002F088400300828
:1009F60085000008B100B2013108A0003208A1004C
:100A06002C08A3002B08A2008E31DF268431E72CA8
:100A1600080020006C036D04031D122D132D7D2D7F
:100A26007108803AF40080307402031D1C2D3A30A0
:100A3600700203181F2D202D522D72087007F40026
:100A46007308713DF5007508803AF600803076022D
:100A5600031D2F2D3A307402031C322D332D4B2DDE
:100A660072087007F4007308713DF5007408C63EFD
:100A7600F200FF30753DF3006130F0000030F10008
:100A860085310C2585317108FA007008F900E62DCC
:100A960072087007F9007308713DFA00E62D7208B6
:100AA6007007F4007308713DF5007508803AF6008A
:100AB60080307602031D612D7B307402031C642D89
:100AC600652D4B2D72087007F4007308713DF50013
:100AD6007408853EF200FF30753DF3003030F000BB
:100AE6000030F10085310C2585317108FA00700857
:100AF600F900E62D7108803AF40080307402031D77
:100B0600862D61307002031C892D8A2DBC2D72083A
:100B16007002F4007308713BF5007508803AF60020
:100B260080307602031D992D6130740203189C2DC6
:100B36009D2DB52D70087202F4007108733BF50007
:100B46007408603EF2000030753DF3003930F00065
:100B56000030F10085310C2585317108FA007008E6
:100B6600F900E62D72087002F9007308713BFA006D
:100B7600E62D72087002F4007308713BF5007508E3
:100B8600803AF60080307602031DCB2D3030740299
:100B96000318CE2DCF2DB52D70087202F400710802
:100BA600733BF50074082F3EF2000030753DF300EC
:100BB6007A30F0000030F10085310C25853171085E
:100BC600FA007008F9007A08F1007908F0000800C8
:100BD6008731BC27853101302000EA000030EB0068
:100BE6000130EC000030ED008E31522685312000B8
:100BF6000D18FE2DFF2D152E6C036D04031D042EFE
:100C0600052E0B2EEC01ED018E3152268531102E6C
:100C16000130EC000030ED00072E20000D1C142ED4
:100C2600152E102E8D313525853120002108E7003F
:100C36002008E6006608A0006708A100890D893B28
:100C46008909A200A30001308631A0268531200043
:100C56002308B5002208B4002108B3002008B2001A
:100C66004030B100F030B0000030AF000030AE00D0
:100C760082317022853120003108CF003008CE0045
:100C86002F08CD002E08CC003F30CB008030CA00A4
:100C96000030C9000030C80080316820853120004E
:100CA6004B08DF004A08DE004908DD004808DC0082
:100CB60087314B27853120006B085D06031D652EA5
:100CC6006A085C060319682E692EFA2D6608A000CC
:100CD6006708A100890D893B8909A200A30001309C
:100CE6008631A026853120002308B5002208B400ED
:100CF6002108B3002008B2004030B100F030B00047
:100D06000030AF000030AE00823170228531200005
:100D16003108DF003008DE002F08DD002E08DC0079
:100D260087314B27853120005C08013EEA00003000
:100D36005D3DEB00F72D803144282000A8002808EF
:100D46000319A62EA72EBB2EA31FAA2EAB2EBB2E93
:100D56002009AA002109AB002209AC002309AD0035
:100D6600AA0A0319AB0A0319AC0A0319AD0AC32E62
:100D76002308AD002208AC002108AB002008AA0019
:100D86002308220421042004031DCA2ECB2ED42EB0
:100D96000030A3000030A2000030A1000030A00007
:100DA6004A2F9630A900E22E0130A4002408A90794
:100DB6000130AD36AC0CAB0CAA0C890BDC2EFE3028
:100DC6002D05031DE72EE82ED72EFC2E0130A4009C
:100DD6002408A9070130AA070030AB3D0030AC3D1E
:100DE6000030AD3D0130AD36AC0CAB0CAA0C890B16
:100DF600F62EFF302D05031D012F022FE92E0C2F95
:100E06000130A9020130AA35AB0DAC0DAD0D890B31
:100E1600062FAC1B0F2F102F162F02302902031896
:100E2600152F162F032F2918192F1A2F222FFF30AF
:100E3600AA05FF30AB057F30AC05FF30AD050310CA
:100E4600A90C2908A400A501A601A7011830A435FC
:100E5600A50DA60DA70D890B2A2F2408AA0425087F
:100E6600AB042608AC042708AD04280803193C2F58
:100E76003D2F422FA31F402F412F422FAD172D0884
:100E8600A3002C08A2002B08A1002A08A000080035
:100E9600031020005E0D5F0DE5006508031D542F4D
:100EA600552F5E2F0030DF000030DE000030DD0001
:100EB6000030DC00BB2F5C08E0005D08E1005E0846
:100EC600E2005F08E3001F30E336E20CE10CE00CC1
:100ED600890B672F6008E400DE17FF30DC05FF3062
:100EE600DD05FF30DE050030DF059630E502E51F43
:100EF6007D2F7E2F962F6508803A973E0318842F04
:100F0600852F862F552F0130DF36DE0CDD0CDC0CED
:100F1600890B872F0130E0006008E507031D942F39
:100F2600952F862FAB2F20306502031C9B2F9C2FFD
:100F3600A62F552F0130DC35DD0DDE0DDF0D890BBB
:100F46009E2F0130E5026508031DAA2FAB2F9D2FAA
:100F560064080319AF2FB02FBB2FDC09DD09DE09AA
:100F6600DF09DC0A0319DD0A0319DE0A0319DF0AA1
:100F7600080021000D1420000C1421000F1023007E
:100F86000D100C1421001D1483309D058F309E0515
:100F96001E11FC309E059E139D148D31E725873169
:100FA6008D31192587318731F92787318F319E2772
:100FB60087313D002608E0391438A6003C00240895
:100FC600E0391738A40021000E138E1723008E1364
:100FD6001E121E119F159C0133309B009E161D1676
:100FE6009D178B170B17210091160800403024001F
:0A0FF60094002230950092010800DB
:101A320022000C1521000C11080001308D317C258B
:101A42008D312000A40100308D31C8258D31080070
:101A52006400800101310130FE020030FF3B7F084B
:101A62007E04031D2A2D003421009D149D183A2D59
:101A72003B2D372D1C082000A200A3012208A00044
:101A82002308A10008002000A000240095132000D4
:101A92002008240091004E2D64002400141C522DB5
:101AA200532D4D2D110808002000A81B592D5A2D29
:101AB2005B2D662D2709A9002809AA00A90A031986
:101AC200AA0A2908A7002A08A80008002000A200E4
:101AD20022000C1140308D3144258D312000220826
:101AE2008D3144258D31200021088D3144258D31E1
:101AF20022000C1508002000A3006030A100123063
:101B02008D3167258D3120002308A10013308D31DE
:101B120067258D3120302000A10012308D316725DC
:101B22008D3108002000A300E030A10012308D3179
:101B320067258D3120002308A10013308D316725E0
:101B42008D31A0302000A10012308D3167258D31FA
:101B5200080020003E08C2003D08C100BB2D3C0821
:101B6200AC003B08AB004130AD003F08AE00843111
:101B72001A248D3120004108840042088500120099
:101B8200031DC42DC52DB02DBB01BC0108002000D2
:101B9200A800023028020318CF2DD02DE62D2808E8
:101BA2000319D42DD52DDB2DC0302404A50000301F
:101BB200A600E02D80302404A5000030A6002508F0
:101BC200A70027088D317C258D31080022008E1157
:101BD20021008E1122000E1221000E1622008E12FA
:101BE20021008E123C002108E0391438A1003D008A
:101BF2002308E0391038A3003C002008E0391338EC
:101C0200A0003D002508E0391138A5000800200099
:101C1200A8011D2E2808A600A70126082407860071
:101C22002708253D870001088D3193258E3101302B
:101C32002000A6002608A8072808A600A701260853
:101C4200240786002708253D87000108031D2A2E48
:101C52002B2E0B2E080047302000C9004408CB0071
:101C62004308CA00CC01CD01D301D4014A30BB00E4
:101C72000030BC004608BE004508BD004930BF0028
:101C82008D31AA258E314A308600003087004231DC
:101C9200403F200043078400413F443D85008001CE
:101CA20008008D311E258E312000A40100308D31B7
:101CB200C8258E3120006C036D04031D612E622E37
:101CC2007A2E8C30C3002730C4000F30C50090300C
:101CD200C6006B08C8006A08C7008E312C268E31F8
:101CE2008C302000A4002730A5008E3108268E31CA
:101CF2008A2E8C30C3002730C4000030C5009030DB
:101D0200C6006B08C8006A08C7008E312C268E31C7
:101D1200712E08002000A601A31F902E912E982E4E
:101D2200A209A309A20A0319A30AA601A60AA11FCE
:101D32009B2E9C2EA12EA009A109A00A0319A10A7B
:101D4200200821040319A62EA72ED02EA501A50A2C
:101D5200B32E0130A035A10D890BAB2E0130A400AA
:101D62002408A507A11FB62EB72EAA2E21082302EA
:101D7200031DBD2E20082202031CC02EC12EC52E1B
:101D82002008A2022108A33B0130A136A00C890B36
:101D9200C62E0130A502031DCF2ED02EB72E260847
:101DA2000319D42ED52EDA2EA209A309A20A0319E9
:101DB200A30A2308A1002208A0000800200022088C
:101DC20023040319E52EE62EEC2E22082304031D1C
:101DD200EB2EEC2EF12E2008803103208E313D2F88
:101DE20022088600230887004931160001040319DE
:101DF200FB2EFC2E1C2F2208860023088700493167
:101E0200403FA400413FA500220886002308870026
:101E12004231403FA600413FA7002708803AA80070
:101E22002508803A2802031D182F240826020318C9
:101E32001B2F1C2F3D2F200022088600230887001D
:101E420042312208840023088500403F0007A40095
:101E52000131413F003DA500240886002508870086
:101E620020088100220886002308870042310130C1
:101E7200810741310318810A08002000A601A11F31
:101E8200432F442F4B2FA009A109A00A0319A10A2D
:101E9200A601A60AA31F4E2F4F2F582FA209A3094E
:101EA200A20A0319A30A0130A4002408A606A70166
:101EB200A8012008210403195F2F602F8F2FA5018D
:101EC200A50A6C2F0130A035A10D890B642F0130BA
:101ED200A4002408A507A11F6F2F702F632F0130C4
:101EE200A735A80D890B712F21082302031D7B2F13
:101EF20020082202031C7E2F7F2F842F2008A2029B
:101F02002108A33B27140130A136A00C890B852F91
:101F12000130A502031D8E2F8F2F702F2608031963
:101F2200932F942F992FA709A809A70A0319A80A82
:101F32002808A1002708A00008002000A101003005
:101F42008D3167258F312000A10101308D31672548
:101F52008F3120302000A10012308D3167258F3162
:101F62001A302000A400F830890BB52FA40BB52F2E
:101F720000003C308D317C258F311A302000A400C6
:101F8200F830890BC22FA40BC22F00000C308D3108
:101F92007C258F311A302000A400F830890BCF2F16
:101FA200A40BCF2F000001308D317C258F311A30E8
:101FB2002000A400F830890BDC2FA40BDC2F0000DA
:101FC2000C308D317C258F3102302000A50052303B
:101FD200A400A630890BEB2FA40BEB2FA50BEB2F44
:101FE200000080308D317C258F3103302000A40029
:101FF2009730890BFA2FA40BFA2F003208004434D1
:1020020065346334683469346634663472346534F2
:1020120020343A3420342534643400344334683470
:102022006934663466347234653420343A34203488
:0620320025346434003483
:020000040001F9
:04000E00EA3FFB1EAC
:00000001FF
