:1000000080314428013400347E14803123001908E3
:10001000FD0041307D02031C0E280F2818285B309C
:100020007D0203181428152818287D08203EFD009D
:1000300030307D02031C1D281E2842287C307D02A2
:1000400003182328242842283A307D02031C29283B
:100050002A28302861307D02031C2F2830284228AE
:100060007D08FB00FC017B08F0007C08F10020000B
:100070005F08F3005E08F2008331092380317008C5
:1000800023009A007E10090080314628803102202A
:100090008031DE00803103208031DF008C3084002D
:1000A000273085006430FE000030FF008F3161276B
:1000B0008031D701D801D901DA01DB01DC01DD0192
:1000C000A0308400003085002030FE000030FF00AA
:1000D0008F31612780317E1020008431932C2000E5
:1000E00035088039BF003535C600B41F7828792817
:1000F0007A284614460803197E287F288F28460A46
:10010000031D832884288C280030B5000030B400FB
:100110000030B3000030B200B417B50197280030AA
:10012000B5000030B4000030B3000030B200310838
:100130008039B6003608BF063135C700B01FA12888
:10014000A228A328471447080319A728A828B828D5
:10015000470A031DAC28AD28B5280030B100003097
:10016000B0000030AF000030AE00B017B101C028C1
:100170000030B1000030B0000030AF000030AE0001
:10018000310830042F042E04031DC728C828E12895
:100190000030B5000030B4000030B3000030B200D1
:1001A0008030B4047F30B5043F08B6003608B5048B
:1001B0003508B1003408B0003308AF003208AE0093
:1001C000182A4608031DE528E628EF280030B1006C
:1001D0000030B0000030AF000030AE00182A4608F2
:1001E000B600B7013708B90047083602B800031C4B
:1001F000B90338087F3EC0000030393DC1003508E2
:10020000BE003408BD003308BC003208BB0000301B
:10021000B5000030B4000030B3000030B200003050
:10022000C5000030C4000030C3000030C200C70168
:100230005729470803191D291E2938290130BB35C4
:10024000BC0DBD0DBE0D890B1F290130B235B30D9C
:10025000B40DB50D890B2629C51F2F293029312949
:1002600032140130C235C30DC40DC50D890B3229BE
:1002700031083E02031D462930083D02031D462970
:100280002F083C02031D46292E083B02031C492966
:100290004A29532945172E08BB022F08BC3B3008BA
:1002A000BD3B3108BE3B0130B6003608C7071A30E7
:1002B0004702031C5C295D2919293E083D043C04C2
:1002C0003B040319642965297E2942147E290130E3
:1002D000B235B30DB40DB50D890B6829C51F712951
:1002E0007229732932140130C235C30DC40DC50DF6
:1002F000890B7429FF30C007FF30C13DB41F81292D
:1003000082296729C701C51F86298729A329FF30AC
:100310004205B600FF304305B700FF304405B80082
:100320007F304505B900390838043704360403190D
:100330009A299B299E29C701C70AA329321CA129F2
:10034000A229A3299B2947080319A729A829D0294D
:100350000130B2070030B33D0030B43D0030B53D50
:10036000351CB329B429D0293208B6003308B700A8
:100370003408B8003508B9000130BA00B937B80CF4
:10038000B70CB60CBA0BBE293908B5003808B40052
:100390003708B3003608B2000130C0070030C13D55
:1003A0004108803AB60080303602031DD929FF305B
:1003B0004002031CDC29DD29EA29FF302000C000AF
:1003C0000030C1000030B5000030B4000030B30090
:1003D0000030B20020004108803AB600803036027A
:1003E000031DF429013040020318F729F829042AD3
:1003F0002000C001C1010030B5000030B400003061
:10040000B3000030B200BF0120004008C600461C07
:100410000A2A0B2A0D2AB417112A7F30B600360893
:10042000B4054636B5003F08B6003608B504D828EE
:10043000080020002D0886008701403FAF00413FA3
:10044000B0002F088400300885001200253A031DF3
:100450002A2A2B2AEE2A2D088600870101308107DF
:1004600041310318810AD701D80103100030031865
:100470000130DD00FF30D900FF30DA002D088600A2
:100480008701403FB400413FB5003408840035087F
:1004900085001200643A03194E2A4F2A592A34085B
:1004A0008400350885001200693A031D582A592A2C
:1004B000E42A2E08860087010108840085010230A5
:1004C0008107003FB600013FB7003408013EAF008E
:1004D0000030353DB0002D08860087012F08C03F51
:1004E0003008C13F2030BA00B71B772A792A013083
:1004F0007A2A0030B3000130BA023A08A03E8600E2
:1005000087010A30A0000030A1003708A300360898
:10051000A2008631A426823120002108A8002008EC
:10052000A7008F318D27823120002708303E8100BF
:100530000A30A0000030A1003708A3003608A2004E
:100540008531E525823120002108B7002008B6005A
:10055000360837040319AD2AAE2AB32A3A08031D18
:10056000B22AB32A7B2A3A080319B72AB82ADD2A05
:1005700033080319BC2ABD2ADD2A0130BA023A0821
:10058000A03E860087012D308100DD2A3A08A03E7A
:10059000860087010108AF00B0012F08A0003008D5
:1005A000A1002C08A3002B08A20086314526823129
:1005B00001302000AF002F08BA0720303A06031D93
:1005C000E22AE32AC62A082B20002D08860087018C
:1005D0000130810741310318810A082B2D0886005C
:1005E0008701403FAF00413FB0002F088400300832
:1005F00085000008B100B2013108A0003208A10056
:100600002C08A3002B08A200863145268231E42A5B
:10061000080020005B035C04031D0F2B102B7A2BBA
:100620007108803AF40080307402031D192B3A30AF
:10063000700203181C2B1D2B4F2B72087007F4003F
:100640007308713DF5007508803AF6008030760237
:10065000031D2C2B3A307402031C2F2B302B482BFC
:1006600072087007F4007308713DF5007408C63E07
:10067000F200FF30753DF3006130F0000030F10012
:100680008331092383317108FA007008F900E32BE4
:1006900072087007F9007308713DFA00E32B7208C5
:1006A0007007F4007308713DF5007508803AF60094
:1006B00080307602031D5E2B7B307402031C612B9D
:1006C000622B482B72087007F4007308713DF50027
:1006D0007408853EF200FF30753DF3003030F000C5
:1006E0000030F1008331092383317108FA0070086A
:1006F000F900E32B7108803AF40080307402031D86
:10070000832B61307002031C862B872BB92B720858
:100710007002F4007308713BF5007508803AF6002A
:1007200080307602031D962B613074020318992BDA
:100730009A2BB22B70087202F4007108733BF5001B
:100740007408603EF2000030753DF3003930F0006F
:100750000030F1008331092383317108FA007008F9
:10076000F900E32B72087002F9007308713BFA007C
:10077000E32B72087002F4007308713BF5007508F2
:10078000803AF60080307602031DC82B30307402A8
:100790000318CB2BCC2BB22B70087202F40071081B
:1007A000733BF50074082F3EF2000030753DF300F6
:1007B0007A30F0000030F100833109238331710871
:1007C000FA007008F9007A08F1007908F0000800D2
:1007D0002000A80028080319EE2BEF2B032CA31FE1
:1007E000F22BF32B032C2009AA002109AB002209CC
:1007F000AC002309AD00AA0A0319AB0A0319AC0A1D
:100800000319AD0A0B2C2308AD002208AC00210807
:10081000AB002008AA002308220421042004031DA1
:10082000122C132C1C2C0030A3000030A20000302E
:10083000A1000030A000922C9630A9002A2C013093
:10084000A4002408A9070130AD36AC0CAB0CAA0CEF
:10085000890B242CFE302D05031D2F2C302C1F2C32
:10086000442C0130A4002408A9070130AA07003055
:10087000AB3D0030AC3D0030AD3D0130AD36AC0C91
:10088000AB0CAA0C890B3E2CFF302D05031D492C07
:100890004A2C312C542C0130A9020130AA35AB0D61
:1008A000AC0DAD0D890B4E2CAC1B572C582C5E2C6F
:1008B0000230290203185D2C5E2C4B2C2918612C68
:1008C000622C6A2CFF30AA05FF30AB057F30AC05E7
:1008D000FF30AD050310A90C2908A400A501A6014D
:1008E000A7011830A435A50DA60DA70D890B722CF4
:1008F0002408AA042508AB042608AC042708AD0484
:1009000028080319842C852C8A2CA31F882C892C59
:100910008A2CAD172D08A3002C08A2002B08A100DB
:100920002A08A00008008631F82684310130200012
:10093000DB000030DC0087313527843120000D18C2
:10094000A22CA32CB92C5B035C04031DA82CA92C9E
:10095000AF2CDB01DC01873135278431B42C013029
:10096000DB000030DC00AB2C20000D1CB82CB92CB7
:10097000B42C8F316D27843120002108D600200847
:10098000D5000730A0000030A1005608A30055088C
:10099000A2008531E525843120005F082106031D72
:1009A000D32C5E0820060319D62CD72CDA2C8731DD
:1009B0003527843120005508A0005608A100890D74
:1009C000893B8909A200A30001308331E8238431E7
:1009D00020002308B5002208B4002108B300200835
:1009E000B2004030B100F030B0000030AF00003055
:1009F000AE0080316F20843120003108CB003008F8
:100A0000CA002F08C9002E08C8008531122584317C
:100A100020004808013EDE000030493DDF009E2CEA
:100A200080314428031020004A0D4B0DD10051089D
:100A3000031D1B2D1C2D252D0030CB000030CA00BE
:100A40000030C9000030C800822D4808CC00490899
:100A5000CD004A08CE004B08CF001F30CF36CE0C59
:100A6000CD0CCC0C890B2E2D4C08D000CA17FF30B2
:100A7000C805FF30C905FF30CA050030CB059630E8
:100A8000D102D11F442D452D5D2D5108803A973E4E
:100A900003184B2D4C2D4D2D1C2D0130CB36CA0C7F
:100AA000C90CC80C890B4E2D0130CC004C08D10765
:100AB000031D5B2D5C2D4D2D722D20305102031C2A
:100AC000622D632D6D2D1C2D0130C835C90DCA0D49
:100AD000CB0D890B652D0130D1025108031D712DFD
:100AE000722D642D50080319762D772D822DC8099B
:100AF000C909CA09CB09C80A0319C90A0319CA0ACC
:100B00000319CB0A08002000A10100308F319F2774
:100B100085312000A10101308F319F2785312030A0
:100B20002000A10012308F319F2785311A3020001C
:100B3000A400F830890B9A2DA40B9A2D00003C30AC
:100B40008F31B42785311A302000A400F830890B8A
:100B5000A72DA40BA72D00000C308F31B4278531B1
:100B60001A302000A400F830890BB42DA40BB42D4A
:100B7000000001308F31B42785311A302000A400E5
:100B8000F830890BC12DA40BC12D00000C308F3122
:100B9000B427853102302000A5005230A400A630D1
:100BA000890BD02DA40BD02DA50BD02D00008030AB
:100BB0008F31B427853103302000A4009730890B92
:100BC000DF2DA40BDF2D003208002000A601A11F9D
:100BD000EA2DEB2DF22DA009A109A00A0319A10A03
:100BE000A601A60AA31FF52DF62DFF2DA209A30924
:100BF000A20A0319A30A0130A4002408A606A7012B
:100C0000A801200821040319062E072E362EA5015F
:100C1000A50A132E0130A035A10D890B0B2E013032
:100C2000A4002408A507A11F162E172E0A2E013096
:100C3000A735A80D890B182E21082302031D222E8B
:100C400020082202031C252E262E2B2E2008A2026D
:100C50002108A33B27140130A136A00C890B2C2EB0
:100C60000130A502031D352E362E172E2608031936
:100C70003A2E3B2E402EA709A809A70A0319A80A55
:100C80002808A1002708A00008002000220823044B
:100C900003194B2E4C2E522E22082304031D512ED5
:100CA000522E572E20088731FF278631A32E220887
:100CB0008600230887004931160001040319612EBC
:100CC000622E822E22088600230887004931403F89
:100CD000A400413FA5002208860023088700423176
:100CE000403FA600413FA7002708803AA8002508FA
:100CF000803A2802031D7E2E240826020318812E26
:100D0000822EA32E2000220886002308870042316D
:100D10002208840023088500403F0007A400013119
:100D2000413F003DA50024088600250887002008D3
:100D300081002208860023088700423101308107A4
:100D400041310318810A08002000A601A31FA92E23
:100D5000AA2EB12EA209A309A20A0319A30AA60169
:100D6000A60AA11FB42EB52EBA2EA009A109A00A69
:100D70000319A10A200821040319BF2EC02EE92E51
:100D8000A501A50ACC2E0130A035A10D890BC42EDA
:100D90000130A4002408A507A11FCF2ED02EC32EFA
:100DA00021082302031DD62E20082202031CD92E5F
:100DB000DA2EDE2E2008A2022108A33B0130A13644
:100DC000A00C890BDF2E0130A502031DE82EE92EB1
:100DD000D02E26080319ED2EEE2EF32EA209A3091C
:100DE000A20A0319A30A2308A1002208A0000800F0
:100DF00021000D1420000C1421000F1023000D10F1
:100E00000C1421001D1483309D058F309E051E118A
:100E1000FC309E059E139D148731B82786318F3193
:100E2000512786318731F8278631853183258631F0
:100E30003D002608E0391438A6003C002408E039BB
:100E40001738A40021000E138E1723008E131E12D4
:100E50001E119F159C0133309B009E161D169D1779
:100E60008B170B172100911608008F3156278731F9
:100E70002000A40100308731D927873120005B038F
:100E80005C04031D442F452F5D2F8C30C300273099
:100E9000C4000F30C5009030C6005F08C8005E086F
:100EA000C70087316E2787318C302000A40027309F
:100EB000A5008731942787316D2F8C30C3002730F0
:100EC000C4000030C5009030C6005F08C8005E084E
:100ED000C70087316E278731542F08004730200024
:100EE000C9004408CB004308CA00CC01CD01D3019E
:100EF000D4014A30BB000030BC004608BE004508A3
:100F0000BD004930BF008F31E22787314A3086006B
:100F1000003087004231403F200043078400413FBA
:100F2000443D8500800108002000A801A92F280861
:100F3000A600A7012608240786002708253D87006C
:100F400001088F31CB27873101302000A600260809
:100F5000A8072808A600A701260824078600270856
:100F6000253D87000108031DB62FB72F972F0800D6
:100F700022008E1121008E1122000E1221000E1669
:100F800022008E1221008E123C002108E039143814
:100F9000A1003D002308E0391038A3003C002008E0
:100FA000E0391338A0003D002508E0391138A500CC
:100FB00008002000A800023028020318E02FE12FCB
:100FC000F72F28080319E52FE62FEC2FC030240453
:100FD000A5000030A600F12F80302404A5000030C9
:100FE000A6002508A70027088F31B42787310800FD
:100FF000403024009400223095009201080008003F
:101EA20022000C1521000C11080001308F31B427DB
:101EB2008F312000A40100308731D9278F310800EB
:101EC2006400800101310130FE020030FF3B7F08D7
:101ED2007E04031D622F003421009D149D18722F71
:101EE200732F6F2F1C082000A200A3012208A0005C
:101EF2002308A10008002000A00024009513200060
:101F0200200824009100862F64002400141C8A2FCC
:101F12008B2F852F110808002000A81B912F922FCC
:101F2200932F9E2F2709A9002809AA00A90A03199D
:101F3200AA0A2908A7002A08A80008002000A2006F
:101F420022000C1140308F317C278F312000220873
:101F52008F317C278F31200021088F317C278F31F0
:101F620022000C1508002000A3006030A1001230EE
:101F72008F319F278F3120002308A10013308F312A
:101F82009F278F3120302000A10012308F319F27F0
:101F92008F3108002000A300E030A10012308F3101
:101FA2009F278F3120002308A10013308F319F27F4
:101FB2008F31A0302000A10012308F319F278F3146
:101FC200080020003E08C2003D08C100F32F3C0873
:101FD200AC003B08AB004130AD003F08AE0082319F
:101FE20019228F3120004108840042088500120026
:101FF200031DFC2FFD2FE82FBB01BC010800443458
:1020020065346334683469346634663472346534F2
:1020120020343A3420342534643400344334683470
:102022006934663466347234653420343A34203488
:0620320025346434003483
:020000040001F9
:04000E00EA3FFB1EAC
:00000001FF
