:08000000803102288731FD2F39
:100F640021000F108F100F118F110D108D100D1106
:100F74008D110800F101F2018230200095000B1D53
:100F8400C42FC52FC12F0B110130F1070030F23DE2
:100F94007208803AF00080307002031DD32F653050
:100FA4007102031CD62FD72FBE2F08008731B2271A
:100FB400873121001508F8390338950095119516E5
:100FC4000F30F300730820008F04F030F30073082F
:100FD4008D058731BC2787310F30F300730820005B
:100FE4008D04F030F30073088F058731BC278731F7
:0C0FF400E22F8031022820008731D82F26
:020000040001F9
:04000E00EA3FFB1EAC
:00000001FF
