:08000000803102288731FD2F39
:100F800021000F100D1420000F1423000D102C0051
:100F90009C1720001C1587309C05FC309C05080020
:100FA0008731C027873120000D18D72FD82FE82F81
:100FB0002C009B01C0309A0420009110911CE12F5D
:100FC000E22FDE2F3D002808E0390F38A800D32F8C
:100FD00019302C009B001A083F3980389A002000F5
:100FE0009110911CF42FF52FF12F3D002808E039C6
:100FF0000F38A800D32F8031022820008731D02F4E
:020000040001F9
:04000E00EA3FFB1EAC
:00000001FF
