:08000000803102288731FD2F39
:100EFA0021000F1023000D102C009C173D0028081C
:100F0A00E0390F38A80020001C151C08873938382A
:100F1A009C00FC309C05F4309B00080087317D273B
:100F2A008731F201F3017308F1007208F000710DC4
:100F3A00F10CF00C710DF10CF00C70082C009B00F8
:100F4A0072080339F000F00EF00DF00D1A08700661
:100F5A003F3970069A002000911CB42FB52FB02F8C
:100F6A0091100130F2070030F33D7308803AF00027
:100F7A0084307002031DC32F00307202031CC62F77
:100F8A00C72F982F0030F4000430F5007508F100DF
:100F9A007408F000710DF10CF00C710DF10CF00CED
:100FAA0070082C009B0074080339F000F00EF00D55
:100FBA00F00D1A0870063F3970069A002000911C3D
:100FCA00E72FE82FE32F9110FF30F407FF30F53DAC
:100FDA007508803AF00080307002031DF62F013048
:100FEA0074020318F92FFA2FCB2F962F803102287B
:060FFA0020008731932F57
:020000040001F9
:04000E00EA3FFB1EAC
:00000001FF
