:08000000803102288731FD2F39
:100E200021000F1023000D102C009C1720001C1512
:100E30001C08873908389C001C08FC3902389C00C3
:100E4000F4309B000800F601F11F272F282F2F2FC9
:100E5000F009F109F00A0319F10AF601F60AF31F85
:100E6000322F332F3C2FF209F309F20A0319F30A48
:100E70000130F4007408F606F701F80170087104F7
:100E80000319432F442F732FF501F50A502F01301A
:100E9000F035F10D890B482F0130F4007408F50787
:100EA000F11F532F542F472F0130F735F80D890BC1
:100EB000552F71087302031D5F2F70087202031C07
:100EC000622F632F682F7008F2027108F33B7714CA
:100ED0000130F136F00C890B692F0130F502031D4A
:100EE000722F732F542F76080319772F782F7D2FA9
:100EF000F709F809F70A0319F80A7808F1007708E2
:100F0000F0000800873110278731FA01FB01043017
:100F1000F0000030F1007B08F3007A08F20087311E
:100F20002327873170082C009B007A080339F900C9
:100F3000F90EF90DF90D1A0879063F3979069A006C
:100F40002000911CA42FA52FA02F91103D00280850
:100F5000E0390F38A8000130FA070030FB3D7B086C
:100F6000803AF90084307902031DB82F00307A02EC
:100F7000031CBB2FBC2F872F0030FC000430FD006A
:100F80000430F0000030F1007D08F3007C08F2002E
:100F900087312327873170082C009B007C08033998
:100FA000F900F90EF90DF90D1A0879063F3979069D
:100FB0009A002000911CDD2FDE2FD92F91103D00CB
:100FC0002808E0390F38A800FF30FC07FF30FD3D4E
:100FD0007D08803AF90080307902031DF12F01303D
:100FE0007C020318F42FF52FC02F3D002808E039AC
:100FF0000F38A800852F8031022820008731822FEA
:020000040001F9
:04000E00EA3FFB1EAC
:00000001FF
